:020000040800F2
:10000000A00B002029020008CF3D0008D5380008C9
:10001000CD3D0008B1070008B5450008000000000C
:10002000000000000000000000000000BF400008C9
:100030009708000800000000BD400008C14000080B
:10004000430200084302000843020008430200087C
:10005000430200084302000843020008430200086C
:100060004302000843020008430200081D0800087C
:100070002908000835080008410800084302000864
:10008000430200084302000843020008430200083C
:10009000C1070008430200084302000843020008A9
:1000A000430200084302000843020008430200081C
:1000B0004302000843020008000000004302000859
:1000C0004302000800000000000000004302000896
:1000D000000000004302000843020008A945000890
:1000E0004302000843020008000000000000000076
:1000F0000000000000000000000000000000000000
:1001000000000000000000000000000000000000EF
:100110000000000000000000430200084302000845
:1001200000000000000000000000000000000000CF
:1001300000000000000000000000000000000000BF
:10014000430200084302000800000000C932000812
:10015000430200084302000843020008430200086B
:1001600043020008430200080000000000000000F5
:10017000000000000000000000000000000000007F
:10018000000000004302000800F002F800F03CF814
:100190000AA090E8000C82448344AAF10107DA45E2
:1001A00001D100F031F8AFF2090EBAE80F0013F0F8
:1001B000010F18BFFB1A43F001031847D84700008E
:1001C000F8470000103A24BF78C878C1FAD852071F
:1001D00024BF30C830C144BF04680C6070470000C1
:1001E0000023002400250026103A28BF78C1FBD840
:1001F000520728BF30C148BF0B6070471FB504F0DD
:10020000A7FB1FBD10B510BD00F0CFF81146FFF7DA
:10021000F5FF04F0DFFA00F0EDF803B4FFF7F2FFAA
:1002200003BC00F0F5F80000094880470948004782
:10023000FEE7FEE7FEE7FEE7FEE7FEE7FEE7FEE796
:10024000FEE7FEE704480549054A064B70470000F3
:100250004541000889010008A0050020A00B0020EE
:10026000A0070020A007002053EA020C00F06980DC
:100270002DE9F04B4FF00006002B1FBFB3FA83F5BA
:1002800003FA05F424FA05F65E4012BF1643B2FAEB
:1002900082F502FA05F4C5F120051EBF22FA05FC1D
:1002A00044EA0C04203556EA044C4FEA144418BFC3
:1002B000641C4FF000084FF00009904271EB030CF2
:1002C00039D3002919BFB1FA81F701FA07F6B0FA5C
:1002D00080F700FA07F6C7F120071EBF20FA07FCD7
:1002E00046EA0C062037B6FBF4FCA7EB0507103FE7
:1002F00007F01F0BCBF120060CFA0BFB2CFA06F6CD
:1003000044BFB3460026202FA4BF5E464FF0000B2B
:100310005BEA060C08BF4FF0010B19EB0B09ABFBB6
:10032000027C48EB0608C01B06FB02CC0BFB03CC8F
:1003300071EB0C01C1E70B46024641464846BDE859
:10034000F08B13B54FF000004FF00001AFF30080C9
:10035000BDE81C4070474FF0000200B513469446BC
:100360009646203922BFA0E80C50A0E80C50B1F10D
:100370002001BFF4F7AF090728BFA0E80C5048BF21
:100380000CC05DF804EB890028BF40F8042B08BFBF
:10039000704748BF20F8022B11F0804F18BF00F8BB
:1003A000012B7047704770477047754600F02CF876
:1003B000AE4605006946534620F00700854618B052
:1003C00020B5FFF73FFFBDE820404FF000064FF09B
:1003D00000074FF000084FF0000B21F00701AC467A
:1003E000ACE8C009ACE8C009ACE8C009ACE8C00999
:1003F0008D46704710B50446AFF300802046BDE837
:100400001040FFF70ABF0000004870474005002079
:1004100001491820ABBEFEE726000200704700002D
:1004200010B50021104B0A4601EB4104002003EBFC
:10043000840400BF24F81020401CC0B20628F9D361
:10044000491CC9B20829EFD300209FED080A00BF5C
:1004500003EB8001401CC0B281ED190A0628F7D3D6
:1004600003F8602F5A7010BDC40400200000000083
:1004700030B50E4A92F86030002103EB430402EBE2
:10048000840400BF30F8115024F81150491CC9B23F
:100490000629F7D35B1CD8B2082803D3002001211A
:1004A00082F8611082F8600030BD0000C4040020B2
:1004B00010B50021124800F0F1F908B100F0ECF994
:1004C0000021104800F0EAF908B100F0E5F9032234
:1004D0000D490B4800F0CCFD08B100F0DDF9032216
:1004E0000A49084800F0C4FD08B100F0D5F90B2016
:1004F00001F090FFBDE810400C2001F08BBF000020
:1005000088010020D8010020080000200E000020F3
:1005100010B5104B0020F4EE000A00224FEA020151
:1005200001EB410403EB840434F81040491CC9B2C8
:1005300022440829F4D300EE102A03EB8001401C6A
:10054000B8EE400AC0B2062820EE200A81ED190A52
:10055000E3D310BDC40400200146406A026C12F0CF
:10056000500F03D0806B026B08461047016C41F4BA
:10057000007101640168C96811F4406F0CD1417EBB
:1005800051B9016C21F480710164016CC90403D478
:10059000016C41F00101016400F0E8BB406A016CAC
:1005A00041F040010164416C41F00401416400F0FC
:1005B000DFBB406A00F0DBBB70B5044600688168B1
:1005C00001F0030101292AD10168C90727D08168F8
:1005D00001F00D01012914D1816841F0020181600F
:1005E00021680320086001F091FB054613E000BF7D
:1005F00001F08CFB401B02280DD920688068C007E1
:1006000009D0206C40F010002064606C40F00100C4
:100610006064012070BD20688068C007E8D10020B8
:1006200070BD000070B504460068816801F00301E8
:10063000012902D10168C90725D18168134A1142F5
:1006400012D1816841F00101816001F05FFB054634
:1006500014E000BF01F05AFB401B02280ED92068AD
:100660000068C043C00709D0206C40F0100020642F
:10067000606C40F001006064012070BD206800687B
:10068000C043C007E6D1002070BD00003F000080DD
:100690001EB53A4908680A68C0F34000C2F3401228
:1006A000002869D0022048603548002A0388ADF848
:1006B00000304388ADF802308088ADF804005BD08C
:1006C000202048602F480188ADF806104188ADF819
:1006D00008108088ADF80A006846FFF7C9FE2A4C6A
:1006E00094F86100002847D0002084F86100FFF7EB
:1006F0000FFF264894ED1D0A9FED251A80ED050A8F
:10070000D4ED190A9FED230ADFED261A00EE810AC7
:100710009FED211A80ED000AD4ED1E0A9FED1F0AFD
:1007200000EE810A9FED1E1A80ED010A94ED1A0A6F
:10073000C0EE010A9FED1C0AB0EE402A10EEA12A7D
:10074000DFED1A0AC2EE202AC0ED022A94ED1B2A20
:10075000C2EE012AB0EE402A12EEA12AC2EE202AF1
:10076000C0ED032AD4ED1C2A82EE812A12EE210A62
:1007700080EE201A80ED041A1EBD00000000024029
:10078000080000200E000020C404002060000020AB
:1007900027C2063CA69BC43BA776063C4260653C4C
:1007A00000F07F45333353403333D33F0AD7233DE3
:1007B00002484168491C4160FEE700001400002027
:1007C000014800F03BBE0000B00200200649A1F144
:1007D0000C0091ED000A80ED020A91ED010A012161
:1007E00080ED010A017070475400002070B50C467E
:1007F000054603F013FFDFED080AB7EE001A2DB12E
:1008000024B185ED000A84ED001A70BDC5ED000A23
:10081000C4ED000A70BD000000000000014801F0B6
:1008200099B8000028020020014801F093B80000A8
:100830003C040020014801F08DB800008004002035
:10084000014801F087B800006C020020054A0168E9
:1008500011441422B1FBF2F1890001640249C16321
:1008600070470000F8FFFDBF0000024030B590F86F
:1008700040500124AC40C56B6C6004686360436801
:10088000102B036803D099600068C26030BD9A6085
:100890000068C16030BD704772B6FEE72DE9F041D7
:1008A000044690F83C00884601280AD0012584F8C7
:1008B0003C502046FFF780FE06004FF0000703D0B3
:1008C00037E00220BDE8F08125642068816821F0CE
:1008D00080418160B8F1010F04D12068816841F046
:1008E000804181602068816841F00041816001F0B1
:1008F0000DFA054613E000BF01F008FA401B0A2874
:100900000DD920688068002809DA206C20F00200E8
:1009100040F01000206484F83C700120D2E7206889
:1009200080680028E8DB206C20F0020040F0010025
:10093000206484F83C703046C4E7000070B502685B
:1009400000234FF0A04494B0A24200D1314C009457
:1009500090F83C40012C1FD0012480F83C40926864
:1009600052074CD4009A9268520748D42A4A0D681C
:1009700040F61F7445B3956890F8306025F46045E3
:1009800045EA46354E68354395600568AE6806F021
:100990000306012E06D102E0022014B070BD2D68BE
:1009A000ED0731D1009DAD6805F00305012D03D1A0
:1009B000009D2D68ED0727D10D6889680D4391686A
:1009C000A1430D4395601FE0916821F4604191605F
:1009D00001688D6805F00305012D02D10968C9077A
:1009E00012D10099896801F00301012903D100990E
:1009F0000968C90708D19168A143916004E0016CBE
:100A000041F0200101640123002180F83C101846C8
:100A1000C3E700000001005000030050F0B594B09F
:100A20000025009590F83C202E46012A19D0012778
:100A300080F83C7003689A6852077CD44A681F2487
:100A4000052A11D2D3F830C002EB42025200944082
:100A50002CEA040C0C6894404CEA040CC3F830C037
:100A600035E0022014B0F0BD0A2A0FD2D3F834C00A
:100A7000521F02EB4202520094402CEA040C0C6814
:100A800094404CEA040CC3F834C020E00F2A0FD283
:100A9000D3F838C00A3A02EB4202520094402CEAE2
:100AA000040C0C6894404CEA040CC3F838C00EE007
:100AB000D3F83CC00F3A02EB4202520094402CEAB9
:100AC000040C0C6894404CEA040CC3F83CC0026867
:100AD000936813F00C0F4FF0070374D1D1F800E0C6
:100AE000BEF10A0F10D39469AEF10A0E0EEB4E0C54
:100AF00003FA0CFE24EA0E04D1F808E00EFA0CFE0C
:100B000044EA0E0494610FE0D2F814C00EEB4E04D8
:100B100003FA04FE2CEA0E0CD1F808E00EFA04FEEB
:100B20004CEA0E0CC2F814C002684C69D2F80CC032
:100B3000CCF3C10C00E0E1E04FEA4C0C04FA0CF4F9
:100B4000D1F810E0DFF810C2BEF1010F42D0BEF1C3
:100B5000020F4DD0BEF1030F58D0BEF1040F63D089
:100B6000146E91F800C004F0F844B4EB8C6F03D11C
:100B7000146E24F0004414660268546E91F800C0AC
:100B800004F0F844B4EB8C6F03D1546E24F00044AD
:100B900054660268946E91F800C004F0F844B4EB17
:100BA0008C6F03D1946E24F0004494660268D46E76
:100BB00091F800C004F0F844B4EB8C6F03D1D46E0C
:100BC00024F00044D4660268946804F00304012C05
:100BD0003AD136E0D2F860E00EEA0C0E91F800C08F
:100BE00044EA8C644EEA040E4EF000441466EAE7D0
:100BF000D2F864E00EEA0C0E91F800C044EA8C646E
:100C00004EEA040E4EF000445466DCE7D2F868E089
:100C10000EEA0C0E91F800C044EA8C644EEA040E11
:100C20004EF000449466CEE7D2F86CE00EEA0C0E6B
:100C300091F800C044EA8C644EEA040E4EF0004481
:100C4000C0E71468E4075ED1CC68012C06D052F8E6
:100C5000B03F0C78A740BB43136020E052F8B04F80
:100C600091F800C007FA0CF73C4314600A68046866
:100C70000A2A0AD3A769093A02EB420293409F432A
:100C80008B6893401F43A76109E06769521C02EB20
:100C9000420293409F438B6893401F4367610968FA
:100CA0002E4A102904D0112905D0122906D02AE095
:100CB00093681B0204E09368DB0101E093685B0228
:100CC000002B20DB03684FF0A044A34202D1244F45
:100CD000009700E000949F6807F00307012F02D1FE
:100CE0001F68FF070AD1009F8FB1BF6807F0030795
:100CF000012F0CD1009F3F68FF0708D0016C41F025
:100D000020010164012580F83C602846AAE61029EC
:100D100008D011291AD01229F5D1916841F4800127
:100D20009160F0E7A342EED1916841F40001916037
:100D30000C490D4A0968B1FBF2F101EB8101490050
:100D400000E0491E00910029FBD1DCE7A342DAD183
:100D5000916841F08071E3E700F0FF8300030050E9
:100D6000000100504400002040420F0070477047CF
:100D700070470000F0B54FF0000595B004002F4615
:100D80002E46009505D0206CC00648D4206C18B1C2
:100D900033E0012015B0F0BD6664E664A66484F813
:100DA0003C60204600F0D8F820688068C00024D459
:100DB0002046FFF701FC0546206CC0061DD4E5B9AE
:100DC000206C20F4885040F0020020642068816884
:100DD00021F0405181602068816841F0805181603C
:100DE000574858490068B0FBF1F000EB8000400024
:100DF00000E0401E00900028FBD120688168C900F7
:100E000002D5806880000AD5206C20F0020040F0F6
:100E100010002064606C40F0010060640125206CCB
:100E2000C0067DD4002D7BD12068816849077ED41F
:100E3000216C21F4807141F00201216442494FF09C
:100E4000A042904200D1414A0092826802F003021F
:100E5000012A02D10068C00710D1009840B1806813
:100E600000F00300012803D100980068C00705D1F5
:100E70008868626820F4403010438860D4E902102A
:100E80000843616B012902D04FF4805200E0002238
:100E9000617E42EA4132104394F820203843012A0F
:100EA0000AD1A9B1216C21F0020141F02001216495
:100EB000616C41F001016164A16A012902D0E26A1A
:100EC0001143084321688A6812F00C0F08D013E020
:100ED000A18C1F4A02EB4141014341F48030EBE712
:100EE000CA6844F202039A43CA60217E94F8302013
:100EF000890341EA420108432168CA68154B1A4038
:100F00000243CA60206901282068016B21F00F01AB
:100F100002D1E269521E114301636664206C00E055
:100F200005E020F0020040F00100206406E0206CA3
:100F300020F0020040F0100020640125284629E737
:100F40004400002040420F00000300500001005008
:100F50000000FEFF07C0F0FF2DE9F04F87B0054607
:100F600014216846FFF7F7F93A4A2F680024106801
:100F7000032380263849401C4FF480784FF4806961
:100F80004FF0200A4FF4405BB7F1A04F07D0DFF8D5
:100F9000CCC067452DD1106001282DD034E0106001
:100FA000012807D1486940F080504861486900F045
:100FB00080500590486940F40030486148696946AE
:100FC00000F40030059007208DE819004FF09040A4
:100FD00000F086FD234F2248E7E80204214887E815
:100FE000500F083F00F00AFD08B1FFF755FCAF6352
:100FF0007D6207B0BDE8F08F486940F080504861DD
:10100000486900F080500590486940F4002048612C
:101010004869694600F4002005900E208DE819000B
:10102000114800F05DFD0F4F0D4844373C30E7E8B4
:1010300002040C4887E8500F4430083F00F0DEFC03
:1010400008B1FFF729FC0948016D41F440710165C1
:10105000CDE7000004000020001002400001005015
:10106000080002402802002000080048000001405B
:101070002DE9F0470446006890468946806840079D
:101080006ED494F83C0001280CD001204FF0A0460B
:1010900084F83C00D6F808034FF00007C00604D0DF
:1010A000012507E00220BDE8F0872046FFF7BAFAE5
:1010B000050002D084F83C7053E0206C40F60161DA
:1010C000884340F480702064D6F80803C00602D03C
:1010D0002068B04206D1206C20F480102064206883
:1010E000C06807E0216C41F4801121641E498842E8
:1010F00008D1F068800105D5206C20F4005040F440
:1011000080502064206CC00404D5606C20F0060080
:10111000606400E0676484F83C70A16B13488862E7
:10112000A16B1348C862A16B1248086321681C2098
:1011300008602068416841F0100141602068C16882
:1011400041F00101C160216843464A464031A06B2D
:1011500000F07BFC2068816841F00401816000E0C0
:10116000022528469FE700000001005059050008AD
:10117000B30500089D05000890F82020012A07D03B
:10118000022A05D0416A41F4802141620120704762
:10119000006842690A43426100207047F0B590F848
:1011A00020500468A468012D05D0022D03D0416AA7
:1011B00041F480214DE014F0406F01D1E50045D5A8
:1011C000C4F301640125A5401D608D684FF4C07310
:1011D0009DB1CE6835434E6845EAC605066803EB07
:1011E0000417F5514FF4C275076805EB04150E6935
:1011F0007E51097D012905D009E00E88CD6845EAB8
:101200004655EBE701684E5946F480764E51117908
:10121000D2F805504FF4C67641EA0521056806EB81
:101220000416A9511178D2F801204FF4C47541EA8F
:101230000221026805EB04155151006803EB04110B
:10124000425842F0010242500020F0BD416A41F490
:10125000001141620120F0BD10B590F82030026805
:10126000012B07D0022B05D0416A41F48021416255
:10127000012010BDD2F8000240F00100C2F80002C7
:10128000087D00F01F0301209840D2F81C328343F0
:10129000C2F81C32CB69B3B9D2F80C328343C2F81E
:1012A0000C328C894B6864F31F434C6902EBC40415
:1012B000C4F840320C890B6864F31F434C6902EB9D
:1012C000C404C4F84432CB69012B16D1D2F80C32D5
:1012D0000343C2F80C320C884B6864F31F434C691B
:1012E00002EBC404C4F840320C89CB6864F31F439A
:1012F0004C6902EBC404C4F844328B69002BD2F869
:1013000004320FD053EA0003C2F804320B69002BF9
:10131000D2F8143208D00343C2F81432096A012902
:1013200004D008E08343EFE78343F5E7D2F81C12CB
:101330000143C2F81C12D2F8000220F00100C2F8EA
:101340000002002010BD704770B590F82040012CBD
:1013500005D0022C03D0416A41F4802128E00468C2
:1013600009B32469A40720D04FF4D874056804EBAE
:1013700001142D5915F00405956005682D591AD0F2
:10138000ED08556005682C5904F00204D4604FF450
:10139000DA74056804EB01142E5906F00F06082EC6
:1013A0000CD308250DE0E468DCE7416A41F4001144
:1013B0004162012070BD6D0D1560E3E72D5905F008
:1013C0000F05156105682D59C5F307259561056859
:1013D0002C59240C54614FF4DC72046802EB0112A6
:1013E000A4581C700468A458240A5C700468A458AB
:1013F000240C9C700468A258120EDA704FF4DE724E
:10140000046802EB0112A4581C710468A458240A51
:101410005C710468A458240C9C710468A258120ED4
:10142000DA71006829B1016941F0200101610020F1
:1014300070BDC16841F02001C160F8E72DE9F05F9F
:101440000546006800244669D0F804908768D0F803
:101450000CB0D0F810A0D0F81880F10748D0F907E8
:1014600014D001218160B80703D5284600F023FA83
:101470000CE0780702D54FF4006407E0380702D586
:101480004FF4805402E0284600F014FAF80516D50F
:1014900029684FF480708860B80503D5284600F0AD
:1014A0000CFA0CE0780502D544F4005407E0380546
:1014B00002D544F4804402E0284600F0FDF9F80328
:1014C00016D529684FF480308860B80303D52846C4
:1014D00000F0F5F90CE0780302D544F4004407E08D
:1014E000380302D544F4803402E0284600F0E6F9DF
:1014F000300707D55FEACB6004D52968102044F493
:101500000074C86070074FF0080707D55FEA0B70DA
:1015100004D52868C760284600F064F9B00706D5EE
:101520002868C068800702D0284600F05CF9700681
:1015300007D55FEACA6004D52968102044F48064A6
:101540000861B00607D55FEA0A7004D5286807610C
:10155000284600F049F9F00606D52868006980079A
:1015600002D0284600F042F9B00308D55FEAC9600E
:1015700005D5296810204860284600F06DF9F00371
:1015800007D55FEA097004D528684760284600F04F
:1015900097F9300446D55FEA497040D5F00504D587
:1015A0005FEAC87001D044F00104B00504D55FEAD9
:1015B000887001D544F00204700504D55FEA4870D4
:1015C00001D544F00404300529D518F0700F26D059
:1015D00008F07000402815D006DC102809D020281B
:1015E0000AD0302816D10AE050280ED0602811D138
:1015F0000EE044F008040DE044F010040AE044F06A
:10160000200407E044F0400404E044F0800401E0DA
:1016100044F480742868816921F07001816129682F
:1016200004204860002C05D0686A20436862284680
:10163000FFF789FEBDE8F09F70B5040003D094F871
:10164000200010B104E0012070BD204600F082F8B7
:101650002068016841F00101016000F057FB054678
:10166000052604E000F052FB401B0A2811D8206830
:101670004068C007F6D02068016821F002010160CF
:1016800000F044FB05460BE000F040FB401B0A283D
:1016900006D9606A40F40030606284F82060D2E7C6
:1016A000206840688007EFD4207E01282068016808
:1016B0003DD021F080010160607E01282068016832
:1016C00038D021F040010160A07E01282068016827
:1016D00033D021F020010160E07E012820680168FC
:1016E0002ED041F010010160207F012820680168A0
:1016F00029D021F008010160607F0128206801687D
:1017000024D021F004010160D4E902010843D4E9A6
:101710000412114308436168491E08432168C861E7
:1017200000206062012084F82000002070BD41F09C
:101730008001C0E741F04001C5E741F02001CAE760
:1017400021F01001CFE741F00801D4E741F0040196
:10175000D9E70000F0B587B0044614216846FEF7CB
:10176000FAFD1D492068884233D11C48C16941F007
:101770000071C161C16901F000710591416941F4D5
:1017800000314161416901F400310591416941F441
:10179000802141614069022400F4802005904FF4CB
:1017A00080500025032609278DE8F1006946F806D8
:1017B00000F096F9E0018DE8F1006946084800F074
:1017C0008FF900221146142000F042FE142000F090
:1017D00032FE07B0F0BD000000640040001002407F
:1017E00000040048704770477047000010B592B081
:1017F00004460FAB06AA0021FFF7A6FDFEF748FF3F
:101800001248B3EE081A002190ED000A104811ABFF
:101810000DAAD0ED000A0F4820EE200AD0ED000AF4
:1018200010208DED0D0A60EE810ACDED0E0ACDE996
:10183000000108200391029104908DF8141069466C
:101840002046FFF7ABFC12B010BD00006000002086
:101850006C000020680000207047000070B504464E
:1018600090F82000012804D0606A40F400206062F3
:1018700018E0022084F820002068016821F00101AE
:10188000016000F043FA05460EE000BF00F03EFAAA
:10189000401B0A2808D9606A40F4003060620520C5
:1018A00084F82000012070BD20684068C007EDD199
:1018B000606270BD704770477047704770477047EF
:1018C000704710B540B190F821100022022905D0D0
:1018D0000421816380F82020012010BD01680B687D
:1018E00023F00E030B6001680B6823F001030B600B
:1018F00090F84030C46B012101FA03F3636080F873
:10190000211080F82020002010BD10B590F8211083
:101910000024022903D004218163012418E0016816
:101920000A6822F00E020A6001680A6822F00102C9
:101930000A6090F84020C36B012101FA02F25A605C
:1019400080F82110002180F82010416B01B18847F8
:10195000204610BDF0B4C16B0D6801680C68066CC0
:10196000042202FA06F32B420FD063070DD50B6851
:101970009B0603D40B6823F004030B6090F840101F
:101980008A40C16B4A60C16A1BE0022303FA06F772
:101990002F424FF0000C4FF0010216D0A70714D5CC
:1019A0000C68A40605D40C6824F00A040C6080F8C6
:1019B000212090F840108B40C16B4B6080F820C014
:1019C000816A002918D0F0BC08470823B3402B4295
:1019D00012D0230710D50B6823F00E030B6090F88C
:1019E0004010C36B02FA01F15960826380F8212034
:1019F00080F820C0016BE4E7F0BC704770B50400CC
:101A000021D0022084F821002268116843F6F0708A
:101A10008143D4E901031843D4E903352B43184328
:101A200063691843A3691843E369184308431060C6
:101A30002046FEF70BFF0020A063012184F821104F
:101A400084F8200070BD012070BD70B5044690F888
:101A50002000002501280CD0012084F8200094F8F3
:101A600021600020012E06D084F82000022528469F
:101A700070BD022070BD022684F82160A06320683A
:101A8000066826F0010606602046FEF7EFFEE06AD3
:101A900000282068016802D041F00E0106E041F004
:101AA0000A0101602068016821F0040101602068DA
:101AB000016841F001010160D9E7000070B50446FA
:101AC00000F024F90546601C02D004480078044464
:101AD00000F01CF9401BA042FAD370BD200000208A
:101AE0002DE9F04FDFF80092002301260325A9F12C
:101AF000040B85B00F2709F1040AABF1040EEAE0EC
:101B000006FA03F422407CD091F804C00CF0030CD8
:101B1000BCF1010F02D0BCF1020F26D1D0F808C0F1
:101B2000CDF800C04FEA430C05FA0CF8CDF810C010
:101B3000DDF800C02CEA080CCDF800C0D1F80C800C
:101B4000DDF810C008FA0CF8DDF800C048EA0C080F
:101B5000C0F80880D0F804C02CEA040C0C79C4F357
:101B600000149C4044EA0C0444600C79E443A4074C
:101B70000DD0D0F80CC04FEA430805FA08F42CEA5F
:101B8000040C8C6804FA08F444EA0C04C4600C7970
:101B900004F00304022C19D1DC0800EB8404029445
:101BA000246A4FEA437C4FEADC6CCDF810C007FA98
:101BB0000CFC24EA0C04D1F81080DDF810C008FAFF
:101BC0000CF848EA0408029CC4F8208004684FEA34
:101BD000430805FA08FC24EA0C0491F804C00CF050
:101BE000030C0CFA08FC4CEA040CC0F800C04C686A
:101BF00014F4403F6ED03D4CD4F818C04CF0010CAA
:101C000000E067E0C4F818C0A46923F0030C04F0F6
:101C100001040094364C64440294A4684FEA837C27
:101C20004FEA1C7807FA08FC24EA0C04B0F1904F44
:101C300006D0DFF8C0C0604505D14FF0010C12E0BE
:101C40004FF0000C0FE0DFF8B0C0604502D14FF05C
:101C5000020C08E0DFF8A4C0604502D14FF0030C8D
:101C600001E04FF0050C0CFA08FC4CEA040C029C55
:101C7000C4F808C0D9F80040CC46D1F80480944399
:101C80005FEAC82800D51443CCF80040DAF80040D9
:101C9000D446D1F8048094435FEA882800D51443E1
:101CA000CCF80040DBF80040DC46D1F804809443D7
:101CB0005FEA883800D51443CCF80040DEF80040D5
:101CC000F446D1F8048094435FEAC83800D5144341
:101CD000CCF800405B1C0A6832FA03F47FF410AFC2
:101CE00005B0BDE8F08F000008040140001002407C
:101CF000000001400004004800080048000C0048B3
:101D00000AB18161704781627047000001488068B4
:101D10007047000020000020F0B590F8C130022B81
:101D200027D090F8C030012B23D0012580F8C05077
:101D3000022380F8C1300468D4F8803300260129DA
:101D400019D0022921D004292BD0082935D0072108
:101D500080F8C11080F8C06090F8C110072938D011
:101D60000168C1F8803380F8C15080F8C06000205D
:101D7000F0BD0220F0BD23F4E021136803F4E0235A
:101D80000B435168C4F8BC13E6E723F460111368F1
:101D90004FF4601707EAC3030B435168C4F8C0133C
:101DA000DAE723F0E07113684FF0E07707EA831376
:101DB0000B435168C4F8C413CEE723F06061136885
:101DC0004FF0606707EA43230B435168C4F8C81318
:101DD000C2E70120F0BD70477047704770477047F9
:101DE000704770477047704770B590F8C130022B4C
:101DF0003CD090F8C030012B38D0012500F8C05FEE
:101E0000022343701388948803F4E053C4F3080456
:101E10001C4313896FF07E4603F400732343148A36
:101E200004F480441C43938903F400432343948ABD
:101E300006EA04441C43936903F000732343146AC5
:101E4000D26904F080441C4302F00042224350F85F
:101E5000C03CB82404EBC1141959054E314011435C
:101E60001951457000210170084670BD022070BDF7
:101E70000020003C704770477047704770477047BC
:101E8000FF2903D0052903D001F079BB01F04FBA37
:101E900001F096BA38B5040054D0022084F8C1008D
:101EA0000025C4F8C450C4F8C850C4F8CC50C4F8D5
:101EB000D050C4F8D450C4F8D850207AC0071BD0F2
:101EC00021492068884208D12048816941F00051A9
:101ED0008161806900F0005000902168086820F45A
:101EE0004042208A00F44040104320F44052A08A2F
:101EF00000F4405010430860204600F029F8207A92
:101F0000800708D52168086820F44072A08900F491
:101F1000407010430860012084F8C10084F8C0506C
:101F20005FF00001C1EBC10004EB8000491C85613A
:101F3000C561056245628562C9B205630529F1D9AB
:101F4000002038BD012038BD00740140001002405F
:101F500008B500680B49884212D10B48816941F0ED
:101F6000005181618069002200F00050009011460C
:101F7000432000F06DFABDE80840432000F05BBA52
:101F800008BD0000007401400010024010B586B08A
:101F9000044614216846FEF7DEF90F49206888429E
:101FA00018D10E48416941F40031416140696946E8
:101FB00000F4003005904FF4706000900220019012
:101FC00000200290032003900D2004904FF09040D9
:101FD000FFF786FD06B010BD0074014000100240FE
:101FE0007047704770477047704770477047704739
:101FF00070B590F8C130022B23D0022380F8C13095
:10200000052920D08023046803EBC115635923F010
:1020100007069368334323F01806D36833436351AC
:102020009425046805EBC11513686351982403686F
:1020300004EBC11152685A50012180F8C1100020F0
:1020400070BD022070BD0368196821F00704916813
:10205000214321F01804D1682143196003681168F5
:102060005961516802689161E6E72DE9F04F90F8F7
:10207000C140022C25D090F8C040012C21D04FF057
:10208000010980F8C090022480F8C14000274FF079
:10209000070C052918D09C2404EBC116012A39D05D
:1020A0008024A8254FF4005A4FF4405B05EBC1157E
:1020B00004EBC114022A2FD0042A45D0082A0BD1E0
:1020C00044E00220BDE8F08F012A0AD0022A0CD099
:1020D000042A0ED0082A10D080F8C1C080F8C07041
:1020E0000EE002681968D1610AE00268196851625D
:1020F00006E002681968916202E002681968D1621C
:1021000090F8C110072948D080F8C19080F8C070BD
:102110000020D7E7196835E04FF0A408D0F800C0D8
:1021200008EBC1111A684CF80120596800290168B0
:102130000A5922F440522ED00A5101680A59D3F8A4
:1021400004C042EA0C0218E0196821E04FF0AC0824
:10215000D0F800C008EBC1111A684CF8012059688A
:10216000002901680A5922F4404214D00A5101683A
:102170000A59D3F804C042EA8C020A515968514501
:1021800003D1996802689151BAE75945B8D1996865
:1021900002685151B4E70A51B2E7012092E700000A
:1021A000F0B590F8C020012A38D0012480F8C04052
:1021B000022280F8C1200268D2F8903345682B4390
:1021C000C2F89033CA0305D50268D368D0F8AC5082
:1021D0002B43D3600022DFF848C08C255CF8223006
:1021E0000B420CD0066805EBC213F758C2EBC20EC7
:1021F00000EB8E0EDEF820E047EA0E07F750521C87
:10220000D2B2052AEAD3026813680B43136080F840
:10221000C140002180F8C0100846F0BD0220F0BD8A
:102220002C00002070B5044690F8C100022811D09F
:1022300094F8C00001280ED0012584F8C050022077
:1022400084F8C100204601F033F984F8C150002021
:1022500084F8C00070BD022070BD10B590F8C02099
:10226000012A10D0012200F8C02F0223437050F839
:10227000C03CD3F894430C43C3F89443427000210C
:102280000170084610BD022010BD10B590F8C020A6
:10229000012A10D0012200F8C02F0223437050F809
:1022A000C03CD3F898430C43C3F8984342700021D4
:1022B0000170084610BD022010BD2DE9F041054611
:1022C00090F8C10014460E46022825D095F8C000AB
:1022D000012823D0012785F8C070022085F8C100AD
:1022E000052E1DD0284601F0FDF9C6EBC60005EB12
:1022F00080002168016261684162A1688162E168D1
:10230000C162216901633146284600F0E3FF85F888
:10231000C170002085F8C000BDE8F0810220FBE715
:1023200028680168D0F8A02321F0200361691943CF
:1023300021F40063A169194321F48063E169194321
:1023400021F0C063216A194321F00063616A1943D7
:10235000A36A21F0404141EA830121F00053216B3F
:10236000194322F48033E26A01601A432868C0F8F6
:10237000A023BAE70248816802781144816070475F
:1023800020000020074810B5016841F010010160ED
:10239000032000F07DF80F2000F006F800F024F88C
:1023A000002010BD0020024070B50D4D04464FF4D2
:1023B0007A712878B1FBF0F00A490968B1FBF0F0B6
:1023C00000F01CFD48B9102C07D200222146501EF7
:1023D00000F03EF800206C6070BD012070BD000070
:1023E0002000002044000020094808B5816941F020
:1023F00001018161816901F001010091C16941F030
:102400008051C161C06900F08050009008BD00009B
:102410000010024000280DDB00F01F020121914056
:102420004009800000F1E020C0F88011BFF34F8F19
:10243000BFF36F8F7047002809DB00F01F020121F6
:1024400091404009800000F1E020C0F80011704781
:10245000F0B40E4B1B680C46C3F30223C3F107050F
:10246000042D00D90425191D072901D2002300E0FD
:10247000DB1E012606FA05F1491E214099409E40C7
:10248000761E16403143F0BC02F09CB80CED00E023
:10249000064900F0070208684FF6FF03184040EABB
:1024A0000220034A10430860704700000CED00E072
:1024B0000000FA052DE9F84F0446006800265C4D3F
:1024C000C0036ED5E869C00008D4E86940F08050C8
:1024D000E861E869012600F08050009055480168E5
:1024E000C90512D40168804641F480710160FFF78C
:1024F0000DFC074605E000BFFFF708FCC01B642881
:1025000035D8D8F80000C005F6D5286A10F4407018
:1025100053D0A18801F4407181424ED0286A4FF413
:10252000803191FAA1F2B2FA82F29700424A4FF05A
:102530000108174420F44070C7F8008491FAA1F113
:10254000B1FA81F102EB81010023C1F80034286265
:10255000C00732D0FFF7DAFB074641F2883A4FF066
:10256000020907E0FFF7D2FBC11B514502D9032046
:10257000BDE8F88F99FAA9F1B1FA81F141F0400173
:102580004846B8EB511F01D129680CE090FAA0F140
:10259000B1FA81F141F04001B0EB511F02D1296A3B
:1025A00001E015E0696A99FAA9F0B0FA80F000F04C
:1025B0001F0008FA00F21142D4D0286A616820F4A2
:1025C0004070084328621EB1E86920F08050E8613D
:1025D0002078C00705D0286BA16820F003000843CD
:1025E00028632078800605D5286BE16820F010006C
:1025F000084328632078000605D5E86A216920F49D
:10260000F8700843E8622088C00405D5286B61692A
:1026100020F48070084328632088400405D5286B87
:10262000A16920F48050084328630020A0E700003F
:102630000010024000700040000042422DE9F047C7
:102640000F46050069D04A4E306800F00700B842D6
:1026500009D2306820F0070038433060306800F05D
:102660000700B84259D12878424C800705D56068E8
:10267000A96820F0F000084360602878C0073DD0CA
:102680006968012001290DD0022923D05FF00203DF
:1026900093FAA3F2B2FA82F242F02002520904D075
:1026A000226803E04FF40033F2E7626A93FAA3F37F
:1026B000B3FA83F303F01F03984002422DD0606801
:1026C00020F0030008436060FFF720FB804641F2E2
:1026D00088390CE04FF00073DAE700BFFFF716FB14
:1026E000A0EB0801494502D90320BDE8F0876068E6
:1026F000696800F00C00B0EB810FEFD1306800F09A
:102700000700B8420BD9306820F00700384330602A
:10271000306800F00700B84201D00120E5E72878D2
:10272000400705D56068E96820F4E0600843606010
:102730002878000706D56068296920F4605040EACF
:10274000C100606000F04EF86168F02292FAA2F2D7
:1027500001F0F001B2FA82F2D140074A515CC84060
:102760000649086006480068FFF71EFE0020BCE727
:1027700000200240001002407A4900084400002076
:102780002400002008480949006849684FF4E062C5
:1027900092FAA2F201F4E061B2FA82F2D140044A64
:1027A000515CC84070470000440000200010024007
:1027B0008A49000808480949006849684FF460528E
:1027C00092FAA2F201F46051B2FA82F2D140044AC4
:1027D000515CC840704700004400002000100240D7
:1027E0008A4900080F4A10B551680F4801F00C03E0
:1027F000042B12D0082B10D10C4BC1F38344D26AA6
:102800001C5D02F00F021033C9039A5C06D5002349
:102810001946FDF729FDA0FB040110BD0448A4FBE7
:10282000000110BD0010024000127A005A49000851
:1028300000093D002DE9F84F050071D02878FC4EC5
:10284000C0074FF0010425D070686704C0F3810011
:10285000012807D07068C0F3810002281BD170687E
:10286000C00318D597FAA7F0B0FA80F040F0200026
:10287000400901D0306800E0706A97FAA7F1B1FA18
:1028800081F101F01F0104FA01F1084265D0686886
:102890000028D2D061E06868B0F5803F0BD010B15D
:1028A000B0F5A02F17D0306820F480303060306849
:1028B00020F4802002E0306840F480303060F06A1C
:1028C000A96820F00F000843F062686820B3FFF7A2
:1028D0001DFA80460AE0306840F480203060EAE764
:1028E000FFF714FAA0EB0800642871D897FAA7F054
:1028F000B0FA80F040F02000400901D0306800E0DC
:10290000706A97FAA7F1B1FA81F101F01F0104FA98
:1029100001F10842E4D020E0FFF7F8F9804607E033
:10292000C2E000BFFFF7F2F9A0EB08006428DCD892
:1029300097FAA7F0B0FA80F040F02000400901D0EB
:10294000306800E0706A97FAA7F1B1FA81F101F0FE
:102950001F0104FA01F10842E4D12878DFF8D4829B
:1029600080074FF0000A4FF0020730D570684FF033
:10297000F80B10F00C0F07D07068C0F3810002282C
:1029800027D17068C00324D497FAA7F0B0FA80F07A
:1029900040F02000400901D0306800E0706A97FAEA
:1029A000A7F1B1FA81F101F01F0104FA01F1084227
:1029B00002D02869012877D130689BFAABF220F069
:1029C000F8016869B2FA82F29040014331605AE03E
:1029D00064E1286988B394FAA4F0B0FA80F048F86A
:1029E0002040FFF793F9814606E000BFFFF78EF91C
:1029F000A0EB090002289AD897FAA7F0B0FA80F065
:102A000040F02000400901D0306800E0706A97FA79
:102A1000A7F1B1FA81F101F01F0104FA01F10842B6
:102A2000E4D030689BFAABF26969B2FA82F220F026
:102A3000F80091400843306025E0FFE794FAA4F0E5
:102A4000B0FA80F048F820A0FFF760F9814605E071
:102A5000FFF75CF9A0EB09000228CCD897FAA7F0A1
:102A6000B0FA80F040F02000400901D0306800E06A
:102A7000706A97FAA7F1B1FA81F101F01F0104FA27
:102A800001F10842E4D1287800076CD5A869A8B301
:102A900094FAA4F0B0FA80F008EB8000C0F880440B
:102AA000FFF734F9814607E0A4E100BFFFF72EF9F4
:102AB000A0EB090002289ED897FAA7F0B0FA80F0A0
:102AC00040F06000B4EB501F01D130680BE097FA82
:102AD000A7F0B0FA80F040F06000B7EB501F01D1D2
:102AE000306A00E0706A97FAA7F1B1FA81F101F05B
:102AF0001F0104FA01F21042D8D034E0FFE794FA43
:102B0000A4F1B1FA81F108EB8101C1F880A4FFF7CB
:102B1000FDF8814606E000BFFFF7F8F8A0EB0900DA
:102B200002289AD897FAA7F0B0FA80F040F0600037
:102B3000B4EB501F01D130680BE097FAA7F0B0FA60
:102B400080F040F06000B7EB501F01D1306A00E028
:102B5000706A97FAA7F1B1FA81F101F01F0104FA46
:102B600001F21042D8D12878400768D5F0694FF0BB
:102B70000009C00009D4F06940F08050F061F069AC
:102B80004FF0010900F0805000902B480168C90502
:102B900012D4016841F480710160FFF7B7F88346F1
:102BA00006E000BFFFF7B2F8A0EB0B00642875D871
:102BB00021480068C005F5D5E86801280AD008B1A9
:102BC000052811D0306A20F001003062306A20F010
:102BD000040002E0306A40F001003062E86868B347
:102BE000FFF794F883460DE0306A40F0040030624D
:102BF000F0E700BFFFF78AF8A0EB0B0141F2883045
:102C000081424BD897FAA7F0B0FA80F040F040002C
:102C1000B4EB501F01D1306813E097FAA7F0B0FA77
:102C200080F040F04000B7EB501F09D1306A08E057
:102C30000010024000004242007000400CE040E002
:102C4000706A97FAA7F1B1FA81F101F01F0104FA55
:102C500001F21042CED02DE0FFF758F8834607E08E
:102C6000FFF754F8A0EB0B0141F28830814215D8F0
:102C700097FAA7F0B0FA80F040F04000B4EB501F94
:102C800001D130680CE097FAA7F0B0FA80F040F07C
:102C90004000B7EB501F02D1306A01E083E0706A58
:102CA00097FAA7F1B1FA81F101F01F0104FA01F2DC
:102CB0001042D5D1B9F1000F03D0F06920F0805057
:102CC000F061E86980B37168C1F38101022977D0AE
:102CD0004FF080714F000228504609D091FAA1F1BF
:102CE000B1FA81F148F82100FFF710F805465DE0E0
:102CF000894691FAA1F1B1FA81F1C24648F8210062
:102D0000FFF704F8804605E0FFF700F8A0EB0800A5
:102D1000022848D897FAA7F0B0FA80F040F02000D7
:102D2000400902D0306801E066E0706A97FAA7F1C6
:102D3000B1FA81F101F01F0104FA01F10842E3D177
:102D4000D5E908100843716821F4741108437060D4
:102D500099FAA9F0B0FA80F04AF82040FEF7D6FFC1
:102D6000054604E0FEF7D2FF401B02281BD897FA65
:102D7000A7F0B0FA80F040F02000400901D03068A0
:102D800000E0706A97FAA7F1B1FA81F101F01F0132
:102D900004FA01F10842E5D02EE000BFFEF7B6FFCD
:102DA000401B022802D90320BDE8F88F97FAA7F04C
:102DB000B0FA80F040F02000400902D0306801E015
:102DC0000BE0706A97FAA7F1B1FA81F101F01F01E7
:102DD00004FA01F10842E1D10EE00128E4D0706864
:102DE0002A6A00F48031914204D1696A00F47010BB
:102DF000884201D00120D7E70020D5E710B5401E5A
:102E0000B0F1807F01D3012010BD4FF0E02460615C
:102E10000F21601701F0D6FB0020A0610720206180
:102E2000002010BD70477047704700002DE9F04149
:102E300002680446D0691168936840F60F0528427D
:102E40004FF000054FF0020605D187067ED58F06AC
:102E50007CD5A16E2AE1DFF884C203F0010701EA04
:102E60000C0C57EA0C0C71D05FEAC07C0CD05FEA06
:102E7000C15C09D54FF0010CC2F820C0D4F8842001
:102E800042F00102C4F88420820709D5DA0707D08E
:102E900022681662D4F8842042F00402C4F8842028
:102EA00042070AD5DA0708D0236804221A62D4F848
:102EB000842042F00202C4F8842002070CD501F0FD
:102EC00020023A4308D0236808221A62D4F88420EA
:102ED00042F00802C4F8842002050BD54A0109D546
:102EE00023684FF400621A62D4F8842042F0200272
:102EF000C4F88420D4F88420002A36D0800605D572
:102F0000880603D5A16E09B120468847D4F884000D
:102F100021688968490602D410F0280F27D020467E
:102F200001F026FA2068806840061BD5206808302A
:102F300050E8001F21F0400140E80012002AF5D1BE
:102F4000606F78B166494163606F00E015E0FEF79D
:102F5000DCFC002809D0606F416B00E02046BDE832
:102F6000F04108472046FFF75FFFBDE8F0812046AB
:102F7000FFF75AFFC4F88450F7E7D4F860C0202761
:102F8000BCF1010F7DD15FEAC06C7ED55FEAC16CF8
:102F90007BD51020106220688068400642D5616FA2
:102FA000086840680004000CDFD0B4F85820824262
:102FB000DBD9A4F85A00886920282BD0216851E871
:102FC000000F20F4807041E80002002AF6D120684A
:102FD000083050E8001F21F0010140E80012002AEB
:102FE000F5D12068083050E8001F21F0400140E88A
:102FF0000012002AF5D1C4F880702566206850E8D8
:10300000001F21F0100140E80012002AF6D1606F85
:10301000FEF757FC6666B4F85800B4F85A10401A28
:1030200081B22CE0B4F85800B4F85A10401A81B2BA
:10303000B4F85A00002898D0002996D0226852E8A7
:10304000000F20F4907042E80003002BF6D12068B6
:10305000083050E8002F22F0010240E80023002B46
:10306000F5D1C4F880702566A566206850E8002F69
:1030700022F0100240E80023002BF6D166662046BD
:1030800000E002E0FFF7CEFE6FE7C60209D55B0263
:1030900007D54FF4801010622046BDE8F041FFF7DD
:1030A000C2BE020606D50A0604D5E16E00297FF4E9
:1030B00055AF5AE74006E7D54806E5D520460268F1
:1030C00052E8001F21F0400142E80013002BF6D126
:1030D000C767C56600F0EAF847E700002001000472
:1030E000C542000810B5040002D0E06F10B107E03F
:1030F000012010BD002084F87800204600F026F85A
:103100002420E0672068016821F001010160606A05
:1031100010B1204601F01EF8204601F05BF90128AD
:10312000E7D02068416821F49041416020688168BF
:1031300021F02A0181602068016841F001010160ED
:103140002046BDE8104001F069B80000F0B587B036
:10315000064614216846FDF7FEF82C49306888427F
:1031600052D12B48C16941F48021C161C16901F488
:1031700080210591416941F4802141614069002528
:1031800000F4802005904FF4406000900220CDE9CB
:103190000105032003900720049069461D48FEF7AF
:1031A0009FFC1E4C1C48802701C41020A1C44FF472
:1031B000405044F810596561C4E906501748FEF7BD
:1031C0001DFC08B1FDF768FB34676662134C1248BA
:1031D00044341430C4E90005C4E9025720202561B5
:1031E000C4E90550C001E0612046FEF707FC08B1C4
:1031F000FDF752FB74670022114627206662FFF735
:1032000027F92720FFF717F907B0F0BD0048004065
:1032100000100240000400481C0002403C04002052
:1032200070B50446C06F202801D0022070BD29B3BC
:1032300022B3E164A4F85020A4F852200021C4F87D
:1032400084102120E067206FD0B1154B8362236F7B
:103250001448D862236F14481863206F13464163E3
:103260002068256F00F128022846E16CFEF7EDFB8F
:1032700030B11020C4F884002020E067012070BD28
:103280002168402008622068083050E8001F41F0A3
:10329000800140E80012002AF5D1002070BD000036
:1032A0002743000867430008D942000803498842C1
:1032B00002D103490020087070470000B4030020C9
:1032C000000000207047000005210148FEF7D8BD2E
:1032D000D8020020062911D2DFE801F00911171DDC
:1032E00023030068D0F8841341F0010104E0006872
:1032F000D0F8841341F00201C0F8841370470068CD
:10330000D0F8841341F00401F6E70068D0F8841384
:1033100041F00801F0E70068D0F8841341F0100193
:10332000EAE70068D0F8841341F02001E4E770B5C3
:1033300006460068D0F88853D0F89043E90707D0D4
:10334000E10705D00121C0F88C133046FEF793FD4C
:10335000A80708D5A00706D531680220C1F88C035C
:103360003046FEF789FD680708D5600706D5316845
:103370000420C1F88C033046FEF77FFD280708D5EE
:10338000200706D531680820C1F88C033046FEF7C7
:1033900075FDE80608D5E00606D531681020C1F8AD
:1033A0008C033046FEF76BFDA80608D5A00606D5AF
:1033B00031682020C1F88C033046FEF718FE70BD3E
:1033C0002DE9F04704460068D0F88883D0F8907360
:1033D0004668C5685FEAC8314FF001090DD5F903A9
:1033E0000BD54FF48031C0F88C1384F8C1900020C5
:1033F00084F8C0002046FEF7F6FC5FEA883009D565
:10340000B80307D521684FF40030C1F88C0320467B
:10341000FEF7E1FCF00708D0E80706D02168C1F804
:10342000089005212046FEF7D9FCB00708D5A8076B
:1034300006D521680220886005212046FEF7CFFCD2
:10344000700708D5680706D5216804208860052123
:103450002046FEF7C5FC300708D5280706D52168A9
:103460000820886005212046FEF7BBFCF00608D541
:10347000E80606D521681020886005212046FEF761
:10348000B4FDB00607D5A80605D5216820208860C0
:103490002046FEF7ABFD700608D5680606D5216804
:1034A0004020886005212046FEF79EFDBDE8F0879C
:1034B000F0B50024E425076805EBC11657F806C0EF
:1034C000B82505EBC1157D59202A27D00CDC042A2C
:1034D00015D004DC012A12D0022A2BD11EE0082AC2
:1034E0001CD0102A26D10AE0402A08D0802A15D004
:1034F000B2F5807F03D0B2F5007F1BD10EE04FF014
:10350000BC0E0EEBC11E5A6847F80E204FF0C00EDD
:1035100007680EEBC1119A687A500BE0C42404EBE3
:10352000C1145A683A51C827046807EBC1119A6858
:1035300062501024FE21A1401A682CEA010CA2401E
:10354000D96842EA0C02A14011431A69D3F814C0A9
:103550001746A2400A430CFA04FC99694CEA020C93
:10356000A14041EA0C01082F06D1AA0504D4AA0102
:1035700002D4DA69A240114300688151F0BD2DE9FF
:10358000F041074688460068842202EBC81146587D
:103590008C2202EBC81145584FF08802F30702EB6A
:1035A000C81407D0E90705D001210151414638462A
:1035B000FEF714FCB00708D5A80706D53968022025
:1035C000085141463846FEF70AFC700708D56807DF
:1035D00006D539680420085141463846FEF700FCFC
:1035E000300708D5280706D5396808200851414614
:1035F0003846FEF7F6FBF00608D5E80606D539682A
:103600001020085141463846FEF7EFFC700608D5F9
:10361000680606D539684020085141463846FEF70D
:10362000E3FC300608D5280606D539688020085105
:1036300041463846FEF7D0FBF00509D5E80507D529
:1036400039684FF48070085141463846FEF7C5FB93
:10365000B00509D5A80507D539684FF400700851A1
:1036600041463846FEF7BDFC700509D5680507D50B
:1036700039684FF48060085141463846FEF7B0FC87
:10368000300509D5280507D539684FF40060085181
:1036900041463846FEF7A7FCF00409D5E80407D5F3
:1036A00039684FF48050085141463846FEF79AFC7D
:1036B000B00409D5A80407D539684FF40050085163
:1036C00041463846FEF78EFB700409D5680407D5DD
:1036D00039684FF48040085141463846FEF7CAFB2E
:1036E000BDE8F0812DE9F04F8024036804EBC1169A
:1036F0009C5924F070449C5103689A469D59E824D3
:1037000004EBC114A64653F80490E42404EBC1145E
:10371000A3461C59D3F8A03325F0200755693D4333
:1037200025F4006795693D4325F48067D5693D43DD
:1037300025F0C067156A3D4325F00067556A3D4393
:1037400025F07047956A3D43176B25F40035B7F1B6
:10375000005F01D145F4003525F04007556BD2F8E4
:1037600048802F4327F4802C176D47EA0C0727F079
:10377000FC7748EA070892F8387029F01F0C07F028
:103780001F0747EA0C0727F0004CD76B47EA0C07E6
:1037900025B924F4807C146C44EA0C04D2F844C0AB
:1037A000BCF5606F02D0BCF5F05F01D1402D03D1B4
:1037B00024F4F0544CEA0404D56C052921D2DFE846
:1037C00001F003090F151B00D26A23F4003343EA0A
:1037D000420316E0D26A23F4802343EA820310E016
:1037E000D26A23F4002343EAC2030AE0D26A23F434
:1037F000801343EA021304E0D26A23F4001343EA7D
:1038000042134AF80680066846F80E70066846F8C5
:103810000B40D424026804EBC11155500068C0F875
:10382000A033BDE8F08F00009FED271AB5EEC00A67
:1038300070B5F7EE001AF1EE10FA4FF07E5102D299
:10384000B0EE410A05E010EE100A884201DDB0EE4C
:10385000610AF5EEC00AF1EE10FA02D2F0EE410A6A
:1038600005E010EE900A884201DDF0EE610A9FED5E
:10387000171A4FF4B474601E20EE010ABCEEC00AA1
:1038800010EE101A20EE810AA142BCEEC00A10EE22
:10389000102A00D30146A24200D302460C4B022656
:1038A0001D68C5F89C601D68C5F81C61891C921CC8
:1038B000A14200D30146A24200D30246C5F8A81097
:1038C0001868C0F8282170BD000000000000B44353
:1038D000D802002002480168491C0160FEE7000090
:1038E0001400002070B58AB00024069407941821B3
:1038F00068460894FCF72FFD24484FF0A0410125AD
:10390000C0E9001405618460447680F82040A90273
:10391000C1620326C6614FF4E071C460816280F821
:1039200030500821416104764463FDF723FA08B161
:10393000FCF7B2FF06A915480694FCF7FFFF08B193
:10394000FCF7AAFFCDE9026400950195049469464D
:103950000E480594FDF762F808B1FCF79DFF0220C0
:103960000090019069460948FDF758F808B1FCF746
:1039700093FF0096694605480196FDF74FF8002829
:1039800001D0FCF789FF0AB070BD0000880100205B
:10399000F0B587B018216846FCF7DDFC21482049C6
:1039A0000024C0E90014012505618460447680F894
:1039B0002040A902C1620326C6614910C460816229
:1039C00080F830500827476104764463FDF7D2F948
:1039D00008B1FCF761FF07200594CDE90005CDE9AA
:1039E0000264049469460F48FDF718F808B1FCF723
:1039F00053FF0220CDE9007069460A48FDF70EF832
:103A000008B1FCF749FF0920CDE9000669460548E1
:103A1000FDF704F8002801D0FCF73EFF07B0F0BD29
:103A200000010050D80100200E4810B50C4901607B
:103A30002421416000214FF4E0228160C0E903129B
:103A40004161017641768176C17601774177FDF754
:103A5000F3FD002803D0BDE81040FCF71DBF10BDEA
:103A600000640040B0020020154808B5416941F0EB
:103A7000010141614069002200F001000090052130
:103A80000B20FEF7E5FC0B20FEF7D5FC00221146CB
:103A90000C20FEF7DDFC0C20FEF7CDFC00221146C9
:103AA0000D20FEF7D5FC0D20FEF7C5FC00220521F8
:103AB0000E20FEF7CDFCBDE808400E20FEF7BBBC93
:103AC0000010024030B587B014216846FCF743FC73
:103AD0001A48416941F480014161416901F4800162
:103AE0000591416941F400214161416901F40021DE
:103AF0000591416941F400314161416901F40031AE
:103B00000591416941F48021416140690C4D00F407
:103B100080204FF480440590002221462846FEF77D
:103B2000EFF8012000210094CDE9010103916946DD
:103B30002846FDF7D5FF07B030BD00000010024059
:103B400000040048F0B5AFB000242E942D942994C1
:103B50002A942B94542168462C94FCF7FCFB269461
:103B6000279424211DA82894FCF7F5FB202115A8F3
:103B7000FCF7F1FB85488449C0E900148460FEF736
:103B800089F908B1FCF788FE4FF48060CDE92D403B
:103B90002DAA01217D48FEF7BFF808B1FCF77CFE95
:103BA0004FF400402E902DAA04217848FEF7B4F877
:103BB00008B1FCF771FE4FF4B470299007202A90E9
:103BC00005200825CDE92B05014629AA6F48FEF7F7
:103BD0000FFA08B1FCF760FE1026CDE90064012061
:103BE0000294CDE90340C006CDE90840059406944F
:103BF000079480000A94CDE90B406A46052163488A
:103C0000FEF75BFB08B1FCF747FE29AA00215F48DD
:103C10002A94FEF7EDF908B1FCF73EFE09940094F2
:103C200001940C940D944FF480700E94CDE90F40E4
:103C3000CDE9124611946A46002154481494FEF7C7
:103C40003CFB08B1FCF728FE6A4601214F48FEF70D
:103C500034FB08B1FCF720FE642626AB01220021CC
:103C60004A482696FEF701FA08B1FCF715FEB42083
:103C7000CDE9260426AB0222002144482894FEF711
:103C8000F4F908B1FCF708FE26AB022201213F48F7
:103C9000FEF7EBF908B1FCF7FFFD4FF4827726AB96
:103CA0000422002139482697FEF7DFF908B1FCF716
:103CB000F3FD3220CDE91D401F942094CDE9214031
:103CC000239424941DAA002130482594FEF78CF8F3
:103CD00008B1FCF7E1FD1DAA01212C48FEF784F88C
:103CE00008B1FCF7D9FD2020CDE91545CDE9170431
:103CF00019941A941B9415AB0122002123481C949B
:103D0000FEF790FA08B1FCF7C7FD15AB04220121BC
:103D10001E48FEF787FA08B1FCF7BEFD169415ABF6
:103D20000222002119481794FEF77CFA08B1FCF72B
:103D3000B3FD15AB082201211448FEF773FA08B150
:103D4000FCF7AAFD29AA01211048FEF751F908B194
:103D5000FCF7A2FD012226AB11460C482696FEF781
:103D600084F908B1FCF798FD26AB0422012107482D
:103D70002697FEF77AF908B1FCF78EFD0348FEF7A7
:103D800005F92FB0F0BD000000740140D8020020FA
:103D90000D4810B50B4901604FF4E131416000213D
:103DA00081600C22C160C0E904128161C1610162BD
:103DB0004162FFF797F9002803D0BDE81040FCF7F7
:103DC0006BBD10BD00480040B4030020FEE7FEE7D5
:103DD00070B5044690F86D00010640D594ED0D1ABB
:103DE000D4ED101A9FED7F2A61EE821AB4EEE11A2B
:103DF000F1EE10FA2BD394ED001A94ED052A71EE32
:103E0000421AF5EEC01AF1EE10FA03DCF1EE411A97
:103E100071EEC21A744A81EE812A12EE101A914292
:103E200005DDD4E91C12491C42F1000201E0002129
:103E30000A46C4E91C12D4E91C254FF47A73002108
:103E40009B1AA94103D2012084F8780002E094F87B
:103E5000781021B19FED650A84ED0D0A70BD84EDE7
:103E6000050A30EEC00AC4ED000A84ED070AB5EE7B
:103E7000C00AF1EE10FA02DDF0EE400A01E0F1EEC8
:103E8000400A94ED121AF4EEC10AF1EE10FA7DDD4B
:103E9000D4ED020A410760EE800AC4ED090AD4EDB0
:103EA000030A20EE801A84ED0C1A94ED081A94EDA2
:103EB000042A70EE411A61EE821AC4ED0B1A09D57C
:103EC00030EE010AB6EE001A20EE010A20EE200ABA
:103ED00084ED0C0A800602D5204600F0B1FB94F870
:103EE0006D00C00702D0204600F0F2FB94F86D0090
:103EF00081070BD594ED060AD4ED050A30EE600A71
:103F0000D4ED040A20EE200A84ED0B0A4106F7EEF8
:103F1000000A0DD594ED0B1A94ED180AD4ED0F1A82
:103F200021EE001A30EEC00A01EE801A84ED0B1A61
:103F300094ED0A0A94ED0C1AC00630EE010A84EDE5
:103F40000A0A94ED091AD4ED0B1A31EE000A30EE8C
:103F5000210A84ED0D0A0BD5D4ED171A94ED0E2A23
:103F600020EE210A70EEE10A02EE200A84ED0D0A2D
:103F7000F0EE400A94ED100AF4EEC00AF1EE10FAE9
:103F800001DD84ED0D0AD4ED0D1A00E019E0F1EE2B
:103F9000400AF4EEE01AF1EE10FA01D2C4ED0D0A77
:103FA000B4EEC01AF1EE10FA02DCB0EE410A01E004
:103FB00084ED090AB4EEE00AF1EE10FA01D2C4ED84
:103FC000090A94ED050A84ED060A94ED0D0A84EDC4
:103FD0000E0AD4ED0B0AC4ED0F0AD4ED070AC4EDA6
:103FE000080A70BD0AD7233C6666663F00000000E1
:103FF00030B4094CB0EE614AC0F88040074CF0EE96
:10400000411AB0EE601AC0F88440F0EE400A30BCAD
:10401000B0EE440A00F09EBB55470008B5470008C3
:1040200010B59FED1F1A4FF47A742DED028B1523F6
:104030009FED198ADFED198AF1EE042AF0EE483A75
:10404000B0EE683AB2EE042AF0EE411A642221463C
:10405000DFED140A9FED140A1448FFF7C9FFF0EED4
:10406000483AB0EE683A9FED120A2146BDEC028B49
:1040700015230E48BDE81040F1EE042AB2EE042AE2
:10408000F0EE401A4FF448729FED0A1ADFED0A0A6B
:104090008830FFF7ADBF0000CDCC4C3F6666663F71
:1040A0000AD7233C000000000000C842780000202E
:1040B000CDCC4C3E0AD7A33BCDCC4C3D704770478E
:1040C000FEF758B930B597B028216846FCF743F998
:1040D00014210AA8FCF73FF91C210FA8FCF73BF9B3
:1040E00001210804CDE90010002402940225049166
:1040F000CDE907504FF4E01009906846FEF79AFBAF
:1041000008B172B6FEE70F20CDE90A054FF48060D2
:10411000CDE90C4002210AA80E94FEF78FFA08B1EF
:1041200072B6FEE74FF481400F904FF48070139009
:1041300015940FA8FEF7BEF9002801D072B6FEE76D
:1041400017B030BD0248016841F47001016070474A
:1041500088ED00E090F82410090706D501684A6848
:10416000436B22F400421A434A6090F82410C907B6
:1041700006D001684A68836A22F400321A434A6012
:1041800090F82410890706D501684A68C36A22F4AA
:1041900080321A434A6090F82410490706D5016816
:1041A0004A68036B22F480221A434A6090F8241074
:1041B000C90606D501688A68836B22F480521A43C7
:1041C0008A6090F82410890606D501688A68C36B56
:1041D00022F400521A438A6090F82410490611D53F
:1041E00001684A68036C22F480121A434A60016C29
:1041F000B1F5801F06D101684A68436C22F4C00201
:104200001A434A6090F82410090606D501684A68E6
:10421000806C22F4002202434A6070472DE9F84383
:1042200000260446C0F88460FDF770FD80462068D3
:1042300000684FF0200500076FF07E4712D5434617
:10424000002229042046009700F064F950B121684B
:1042500051E8000F20F0800041E80002002AF6D16A
:10426000E56721E020680068400722D54346002228
:104270004FF480012046009700F04CF9C8B1216846
:1042800051E8000F20F4907041E80002002AF6D1B6
:104290002068083050E8001F21F0010140E80012BA
:1042A000002AF5D1C4F8805084F878600320BDE876
:1042B000F883E567C4F8805044F8606F666026763E
:1042C0000020F4E710B5406A0021A0F85A10A0F8C9
:1042D0005210FEF7A9FD10BD70B5446AE06FD4F826
:1042E0008050216889684FF00006090606D521280C
:1042F00004D1A4F85260204600F060F8206880687D
:10430000400606D5222D04D1A4F85A60204600F0BC
:104310002FF8D4F8840040F01000C4F88400204640
:10432000FEF782FD70BD10B50146406A89692029FB
:1043300016D00021A0F852100168083151E8002F72
:1043400022F0800241E80023002BF5D1026852E8F8
:10435000001F41F0400142E80013002BF6D110BDD0
:10436000FEF7A4FF10BD10B5406AFEF7ABFF10BD0D
:10437000016851E8002F22F4907241E80023002BDD
:10438000F6D10168083151E8002F22F0010241E81E
:104390000023002BF5D1016E012908D1026852E8F3
:1043A000001F21F0100142E80013002BF6D120215C
:1043B000C0F880100021016681667047026852E8EB
:1043C000001F21F0C00142E80013002BF6D120218C
:1043D000C167704770B5044680682169E269084387
:1043E000616900251143226808431168434B194055
:1043F0000143116020684168E26821F44051114393
:104400004160A169206A084321688A6822F4306209
:1044100002438A603A492068884210D13948006BCB
:1044200010F0030011D0012805D0022805D0032880
:104430000DD102210CE004210AE0082108E03249F4
:10444000884202D03149884201D1002100E0102188
:10445000E3694FF400402E4A4FF6EF76834226D1AF
:10446000092941D2DFE801F005080B400D4040402A
:104470001000FEF787F906E0FEF79CF903E010460E
:1044800002E0FEF7AFF980B34100606801EB500134
:10449000B1FBF0F0A0F11001B14225D84FF6F07158
:1044A0000140C0F3420001432068C16021E00929B6
:1044B0001AD2DFE801F005080B190D1919191000BF
:1044C000FEF760F906E0FEF775F903E0104602E03A
:1044D000FEF788F948B1616800EB5100B0FBF1F0DC
:1044E000A0F11001B14201D9012502E0216880B29A
:1044F000C8600020A066E066284670BDF369FFEF43
:1045000000380140001002400044004000480040D4
:1045100000127A002DE9F047994617460D460446E9
:104520004FF00008089E33E0701C31D0FDF7EEFB21
:10453000A0EB0900B04218D8BEB120680168490755
:1045400026D5802D24D0402D22D0C169C94309072A
:104550000DD4082505622046FFF70AFFC4F88450F1
:1045600084F878800120BDE8F0870320FBE7C0696C
:10457000C04300050CD421684FF400600862204657
:10458000FFF7F6FE2020C4F8840084F87880ECE77A
:104590002068C06935EA000004D00020B842C3D0CA
:1045A0000020E0E70120F9E70148FEF73FBC0000EA
:1045B000B403002002488168491C8160FEE70000C6
:1045C000140000200907090E002804DB00F1E02098
:1045D00080F80014704700F00F0000F1E02080F830
:1045E000141D704700B58BB000200121CDE90601F4
:1045F0000891009001900290039005900490694604
:104600000548FCF729FE0448FDF728F90221024875
:10461000FCF7B2FD0BB000BDB0020020B5EEC00A41
:10462000F1EE10FA02D29FED050A704710EE100A63
:10463000B0F17E5FF9DDB7EE000A704700000000C0
:1046400090ED070AD0ED0A0A60EE200AF5EEC00AE6
:10465000F1EE10FA39DDB5EEC00AF1EE10FA02DD26
:10466000F0EE400A01E0F1EE400A90ED161AF4EE89
:10467000C10AF1EE10FA28D9D0ED150AB5EEC00A3C
:1046800030EE812AF1EE10FA02DDF0EE401A01E080
:10469000F1EE401AB4EEE12AF1EE10FA11DBB5EEBC
:1046A000C00AF1EE10FA01DCB1EE400A30EEC00AA9
:1046B00030EE010A80EE201A90ED0C0A21EE000A7D
:1046C00001E09FED020A80ED0C0A70470000000037
:1046D000D0ED0A1A90ED0C0A90ED0B1A71EE800ADB
:1046E00090ED090A30EE210A30EE010AB5EEC00A5B
:1046F000F1EE10FA01DCB1EE400A90ED102A9FEDC8
:10470000141AB4EEC20AF1EE10FA0ADD90ED070AAF
:1047100020EE210AB5EEC00AF1EE10FA01DD80EDBF
:104720000C1A90ED110AB4EEE00AF1EE10FA03D281
:1047300080ED0C1A80ED0A0AB1EE400AB4EEE00AF0
:10474000F1EE10FA03DD80ED0C1A80ED0A0A7047D5
:104750000000000080ED120A00EE102A00F1080CA3
:10476000B8EE400A80ED110A00EE101A4900B8EECA
:10477000400A80ED100A00EE101A0021B8EE400A3F
:1047800080ED140A9FED0A0A80ED000A80ED0C0A04
:10479000CCEC030A00F1540C8CEC042A80F86D3048
:1047A000C0E91C1180F8781080ED0D0A70470000F8
:1047B00000000000F5EEC00A00F10801F1EE10FA69
:1047C00081EC030A03D19FED020A80ED0A0A7047CB
:1047D000000000002DED028B86B0FDF7D3FDFFF742
:1047E00071FCFFF76FF9FFF73FF9FFF7ABF9FFF740
:1047F00079F8FFF7CDF8FFF717F9FFF7C9FAFFF7D8
:10480000F1FEFBF70DFEFBF753FEFBF7DFFFFFF7B3
:1048100007FCDFED438AB0EE680AF0EE400AFFF7CE
:1048200003F84FF4E0213F48FDF7BAFC08B172B637
:10483000FEE70F213B48FDF710FDFFF7F1FB3A4F74
:104840003A4C3B4E3B4D00BFFBF722FF95ED000A73
:1048500010EE100AB8420DDA94ED000A364910EE57
:10486000100A884206DA94ED000A344910EE100A64
:10487000884205D30F212B48FDF707FD72B6FEE7EE
:10488000B0EE680AF0EE400AFEF7CEFF94ED000AA3
:10489000F6EE000A2A48B1EE400AFFF799FA2848D6
:1048A000D0ED100A80EE208AB5EEC08AF1EE10FA43
:1048B00002D2B0EE688A06E018EE100AB0F17E5F10
:1048C00001DDB7EE008A01A96846B0EE480AFBF7A1
:1048D0008DFF9DEC020AFEF7A7FF1AA094ED000AD7
:1048E000D5ED000A00688DED028A8DED030ACDED4D
:1048F000040A0590307830B9102202A91248FEF758
:104900008FFC0120307095ED000A104910EE100A5E
:10491000884299DBFFF784FB0A20FDF7CFF8FBE71D
:1049200000000000D80200200000D04170000020EC
:1049300000000020640000200000C8410000C8C141
:10494000780000200000807FB40300200000C041F8
:104950004FF04070E1EE100A7047020304050607AD
:1049600008090A0B0C0D0E0F1010010203040506B6
:104970000708090A0B0C0D0E0F10000000000000C4
:1049800000000102030406070809000000000102FC
:1049900003040000B4490008000000207800000073
:1049A000C40100082C4A000878000020280B0000F1
:1049B000E00100080000000000000000000000000E
:1049C00000000000000000000000000000000000E7
:1049D00000000000010000001000000000000000C6
:1049E00000000200000004000000080000001000A9
:1049F000000020000000010000127A00000000000A
:104A000000000000000000000000C0410000003F66
:104A10000000000000000000000000000000000096
:0C4A20000000000000000000000000008A
:040000050800018965
:00000001FF
